S0110000446F6F725F4C6F636B2E7372656397
S11300000C9441000C9456000C9456000C94560029
S11300100C9456000C9456000C9456000C94560004
S11300200C9456000C9456000C9456000C945600F4
S11300300C9456000C9456000C9456000C945600E4
S11300400C9456000C9456000C9456000C945600D4
S11300500C9456002D033403340334033403340363
S11300603403330334033403340334033403AE025C
S1130070BB02C802D502E202EF02FC020903150327
S1130080210311241FBECFE5D8E0DEBFCDBF11E0B0
S1130090A0E6B0E0E4E4FBE002C005900D92AE32CD
S11300A0B107D9F70E9477040C94A0050C940000C2
S11300B0FC014130B1F018F0423029F1089521815A
S11300C081E090E0AC0102C0440F551F6A95E2F74D
S11300D0BA016095862F822381838281682362839B
S11300E00895218181E090E0AC0102C0440F551FC6
S11300F06A95E2F7BA01842F8095822381838281F5
S1130100682B62830895218181E090E0AC0102C0F4
S1130110440F551F6A95E2F7BA01622B6183089573
S1130120442389F04130F1F4FC01428121E030E0C4
S1130130F90102C0EE0FFF1F6A95E2F7BF01642BBD
S1130140FC0162830895FC01428121E030E0F90161
S113015002C0EE0FFF1F6A95E2F7BF0160956423AA
S1130160FC0162830895FC01808121E030E0062EC9
S113017002C0220F331F0A94E2F790E082239323F4
S11301809C0102C0359527956A95E2F72130310527
S113019011F080E0089581E00895CF93DF931F92DA
S11301A0CDB7DEB769832981FC0121830F90DF91EC
S11301B0CF910895CF93DF931F92CDB7DEB76983B4
S11301C02981FC0122830F90DF91CF9108955D9BDB
S11301D0FECF8CB90895CF93DF93EC0188818823F7
S11301E031F021960E94E70089918111FBCFDF91C4
S11301F0CF9108950F931F93CF93DF9300D0CDB782
S1130200DEB78C0180EF89838FEF8A836981C8010F
S11302100E94CD006A81C8010E94DA000F900F90FD
S1130220DF91CF911F910F9108955F926F927F920A
S11302308F929F92AF92BF92CF92DF92EF92FF92F2
S11302400F931F93CF93DF93CDB7DEB72D970FB6E0
S1130250F894DEBF0FBECDBF6C018CE0E0E6F0E0A9
S1130260DE01119601900D928A95E1F7CE01019677
S11302705C01E12CF12C0F2EFAE06F2EF02D689426
S1130280882484F8912C512C94010E2C02C0220F46
S1130290331F0A94E2F720952D876D85C6010E94CD
S11302A0DA008501752C672DC6010E94B300811107
S11302B008C0F80160808FE891E00197F1F700C071
S11302C0000073940F5F1F4F93E07912ECCFEFEFB0
S11302D0EE1AFE0AF3E0AF0EB11C84E0E816F10456
S11302E099F6862D2D960FB6F894DEBF0FBECDBFBE
S11302F0DF91CF911F910F91FF90EF90DF90CF90FE
S1130300BF90AF909F908F907F906F905F90089573
S1130310C098C198EFE9FFE03197F1F700C0000001
S1130320C29AEFE9FFE03197F1F700C0000098B3FB
S11303309F7098BB98B3282F207F922B98BBEFE92E
S1130340FFE03197F1F700C00000C298EFE9FFE049
S11303503197F1F700C00000C29AEFE9FFE031974E
S1130360F1F700C0000098B39F7098BB28B3F0E188
S11303708F9FC0011124822B88BB8FE99FE00197D6
S1130380F1F700C00000C298EFE9FFE03197F1F700
S113039000C00000089587B3876087BB87B3806F70
S11303A087BB82E00E94880188E20E9488018CE079
S11303B00E94880181E00E9488010895C09AC19832
S11303C0EFE9FFE03197F1F700C00000C29AEFE9CE
S11303D0FFE03197F1F700C0000098B39F7098BB1D
S11303E098B3282F207F922B98BBEFE9FFE0319739
S11303F0F1F700C00000C298EFE9FFE03197F1F790
S113040000C00000C29A98B39F7098BB28B3F0E173
S11304108F9FC0011124822B88BB8FE99FE0019735
S1130420F1F700C00000EFE9FFE03197F1F700C0F9
S11304300000C2988FE99FE00197F1F700C0000027
S1130440089580E10E94880180E20E94DE0180E13B
S11304500E948801089581E00E9488010895CF9345
S1130460DF93EC018881882331F021960E94DE011C
S113047089918111FBCFDF91CF910895362F4423C9
S113048089F04130F1F4913031F4682F832F972FA4
S11304900E949000089540E0682F832F972F0E94B8
S11304A090000895913039F440E0682F832F972FFE
S11304B00E949000089541E0682F832F972F0E9497
S11304C0900008950F931F93CF93DF93162FD72F88
S11304D0C82F092F42E0682F812F972F0E945800C0
S11304E040E0612F7D2F8C2F902F0E943E02DF91E0
S11304F0CF911F910F910895442381F0262FA82FA7
S1130500B92FE62FF72F80E031E091919D9391115F
S1130510832F9E2F921B9417C0F3089580E00895B3
S11305200F931F93CF93DF93EC0110E089E390E0E6
S11305300E941501082F111105C08A3009F4ABC0BF
S11305400E942B02402F50E0FA01B397E731F105E6
S113055008F08AC0E65DFF4F0C949A05163009F442
S113056090C080E30E94DE01FE01E10FF11D80E3F3
S113057080831F5F79C0163009F483C081E30E9431
S1130580DE01FE01E10FF11D81E380831F5F6CC07A
S1130590163009F476C082E30E94DE01FE01E10F09
S11305A0F11D82E380831F5F5FC0163009F469C0C8
S11305B083E30E94DE01FE01E10FF11D83E38083EA
S11305C01F5F52C0163009F45CC084E30E94DE0150
S11305D0FE01E10FF11D84E380831F5F45C01630E7
S11305E009F44FC085E30E94DE01FE01E10FF11D15
S11305F085E380831F5F38C0163009F442C086E368
S11306000E94DE01FE01E10FF11D86E380831F5F7E
S11306102BC01630B1F187E30E94DE01FE01E10F29
S1130620F11D87E380831F5F1FC0163051F188E3FB
S11306300E94DE01FE01E10FF11D88E380831F5F4C
S113064013C01630F1F089E30E94DE01FE01E10FD0
S1130650F11D89E380831F5F07C0163091F00E946B
S11306602102115001C01F5F2FEF8BED95E0215047
S113067080409040E1F700C00000173008F456CFE6
S113068014C02FEF8BED95E0215080409040E1F7AE
S113069000C000004BCF2FEF8BED95E02150804040
S11306A09040E1F700C0000041CF8AE2DF91CF9192
S11306B01F910F910895AF92BF92CF92DF92EF9264
S11306C0FF920F931F93CF93DF935C01EB016901BA
S11306D07A0146E00E947C02882349F18A898233A8
S11306E031F10E942B0282EF90E00E942F022FEF43
S11306F087EA91E6215080409040E1F700C0000075
S113070041E0C701B6010E943E02F80180818133B5
S113071039F40E942B0283E091E00E942F0204C06E
S1130720CE0143960E94EB0082E38A8BD5C046E05B
S1130730BE016E5D7F4FC5010E947C02882301F1DA
S11307400E942B0282EF90E00E942F0241E0C70139
S1130750B6010E943E02FFEF27EA81E6F1502040F5
S11307608040E1F700C000000E942B02F801808164
S1130770813009F4B1C0CE01C5960E94EB00ACC033
S113078046E0BE016C5B7F4FC5010E947C0288235A
S113079009F10E942B0282EF90E00E942F0241E0B7
S11307A0C701B6010E943E02FFEF27EA81E6F1503D
S11307B020408040E1F700C000000E942B02F801B5
S11307C08081813009F488C0CE01895A9F4F0E94EC
S11307D0EB0082C046E0BE016A597F4FC5010E940A
S11307E07C02882309F10E942B0282EF90E00E9490
S11307F02F0241E0C701B6010E943E02FFEF27EA43
S113080081E6F15020408040E1F700C000000E94E2
S11308102B02F8018081813009F45EC0CE01875833
S11308209F4F0E94EB0058C046E0BE0168577F4FBF
S1130830C5010E947C02882301F10E942B0282EFF1
S113084090E00E942F0241E0C701B6010E943E02DF
S1130850FFEF27EA81E6F15020408040E1F700C035
S113086000000E942B02F80180818130A9F1CE01A1
S113087085569F4F0E94EB002FC046E0BE0166558F
S11308807F4FC5010E947C02882301F10E942B0244
S113089082EF90E00E942F0241E0C701B6010E945E
S11308A03E02FFEF27EA81E6F15020408040E1F765
S11308B000C000000E942B02F8018081813061F0A9
S11308C0CE0183549F4F0E94EB0006C00E942B026E
S11308D08FE091E00E942F02DF91CF911F910F9141
S11308E0FF90EF90DF90CF90BF90AF900895CF939B
S11308F0DF93CDB7DEB7C35DD1090FB6F894DEBF81
S11309000FBECDBF0E94CB0189E390E00E94FA00A4
S11309100F2EF6E3CF2EF02DD12CE12CFF24F394EF
S113092066E370E080E091E00E946202DE011296CC
S11309308CECFD0111928A95E9F786E0ECE6F0E093
S113094001900D928A95E1F78BE0E3E7F0E0DE0198
S1130950189601900D928A95E1F793E39B8B80E3BF
S11309608C8B28E0EFE7F0E0DE01559601900D92C4
S11309702A95E1F7FE017D9627E0DF011D922A9575
S1130980E9F726E0EEE8F0E0DE01949601900D929E
S11309902A95E1F72BE0E5E9F0E0DE019A96019073
S11309A00D922A95E1F78DAB22E32EAB27E0E1EA25
S11309B0F0E0DE01D79601900D922A95E1F7FE0151
S11309C0FE9628E0DF011D922A95E9F726E0E0EB88
S11309D0F0E0DE01AA5BBF4F01900D922A95E1F78A
S11309E02BE0E5E9F0E0DE01A45BBF4F01900D923E
S11309F02A95E1F768968FAF689769969FAF6997D4
S1130A0096E0E7EBF0E0DE01A75ABF4F01900D92AC
S1130A109A95E1F799E0E9E5F0E0EC0FFD1F3696D1
S1130A20DF01292F1D922A95E9F726E0E6ECF0E094
S1130A30DE01A859BF4F01900D922A95E1F72BE0F2
S1130A40E5E9F0E0DE01A259BF4F01900D922A952D
S1130A50E1F7EA968FAFEA9724E3EB962FAFEB9793
S1130A6025E0EDECF0E0DE01A558BF4F01900D92BA
S1130A702A95E1F7EBE7F0E0EC0FFD1F35962AE04D
S1130A80DF011D922A95E9F726E0ECEDF0E0DE01A6
S1130A90A657BF4F01900D922A95E1F72BE0E5E9A7
S1130AA0F0E0DE01A057BF4F01900D922A95E1F7C7
S1130AB0C556DF4F8883CB59D04085E3C456DF4FFA
S1130AC08883CC59D04086E0E3EEF0E0DE01A35603
S1130AD0BF4F01900D928A95E1F7EDE9F0E0EC0F3C
S1130AE0FD1F3696DF011D929A95E9F78EE191E09C
S1130AF00E942F02CE0182539F4F0E9490028A329D
S1130B0079F48E010F5F1F4F2C2D3D2D4E2D5F2D3F
S1130B10BE016E5F7F4FCE0182539F4F0E945B03E5
S1130B20BFEFE9E6F8E1B150E040F040E1F700C082
S1130B300000DCCFEE0FFF1F0590F491E02D099427
S1070B40F894FFCF53
S1130B443132333435363738392A3023353535356F
S1130B543535003031303333303630383939007379
S1130B646861696D616100000000000000003131BA
S1130B743232333300303130333330363038303876
S1130B84006B68616C6564000000000000000000F4
S1130B943131313333330064616C69610000000026
S1130BA40000000000003131313131310077616CD3
S1130BB479000000000000000000000032323232EC
S1130BC432320068616D64790000000000000000A6
S1130BD40000416363657074656450617373776F77
S1130BE47264004E6F20496E7465726E65740057AA
S1130BF4726F6E672050617373776F726400456E11
S1110C047465722050617373776F7264000020
S9030000FC
